:020000040800F2
:10000000600600203902000841020008430200088F
:1000100045020008470200084902000800000000ED
:100020000000000000000000000000004B0200087B
:100030004D020008000000004F02000851020008B5
:10004000530200085302000853020008530200083C
:10005000530200085302000853020008530200082C
:10006000530200085302000853020008530200081C
:10007000530200085302000853020008530200080C
:1000800053020008530200085302000853020008FC
:1000900053020008530200085302000853020008EC
:1000A00053020008530200085302000853020008DC
:1000B00053020008530200085302000853020008CC
:1000C00053020008530200085302000853020008BC
:1000D00053020008530200085302000853020008AC
:1000E000530200085302000853020008530200089C
:1000F000530200085302000853020008530200088C
:10010000530200085302000853020008530200087B
:10011000530200085302000853020008530200086B
:10012000530200085302000853020008530200085B
:10013000530200085302000853020008530200084B
:10014000530200085302000853020008530200083B
:10015000530200085302000853020008530200082B
:10016000530200085302000853020008530200081B
:100170005302000853020008530200080000000068
:10018000530200085302000800F002F800F044F89F
:1001900014A696E8000CB244B344DA4501D100F04D
:1001A0003BF8BAE80F000FA696E83000A5EB04056F
:1001B00004EB0607AAEB0704A7F101074FEA1515A0
:1001C0004FEA3414A4F10104AC4201D300F024F846
:1001D00013F0010F18BFFB1A43F0010300F001F800
:1001E000DBE71847140200002402000070470000FB
:1001F0000023002400250026103A28BF78C1FBD830
:10020000520728BF30C148BF0B6070471FB500F0D0
:10021000E5F81FBD10B510BD00F031F81146FFF72D
:10022000F5FF00F071F800F04FF803B4FFF7F2FFAC
:1002300003BC00F057F80000094880470948004710
:10024000FEE7FEE7FEE7FEE7FEE7FEE7FEE7FEE786
:10025000FEE7FEE704480549054A064B70470000E3
:10026000F5020008890100086000002060060020F7
:10027000600200206002002070477047704775469A
:1002800000F02CF8AE4605006946534620F0070002
:10029000854618B020B5FFF7DDFFBDE820404FF0E0
:1002A00000064FF000074FF000084FF0000BAC467F
:1002B000ACE8C009ACE8C009ACE8C009ACE8C009CA
:1002C00021F007018D46704710B50446AFF300805A
:1002D0002046BDE81040FFF7A8BF00000048704767
:1002E0000000002001491820ABBEFEE726000200F6
:1002F000704700004EF68850CEF20000016841F4CD
:10030000700101607047000043F63001C4F2020141
:100310000A6840F6144042F00802C4F202000A6083
:1003200050F8142C42F0807240F8142C0A6842F005
:1003300008020A6050F8142C42F0806240F8142C35
:100340000A6842F008020A6050F8142C42F0805209
:1003500040F8142C0A6842F008020A6050F8142C85
:1003600042F0804240F8142C0A6842F008020A6009
:1003700050F8142C42F4802240F8142C0A6842F001
:1003800008020A6050F8141C41F4806140F8141C03
:1003900046F68111CFF6677101E000BF01310268B6
:1003A000002942F480520260026882F40052026026
:1003B000026882F480420260026882F400420260B5
:1003C000026882F400720260026882F02002026019
:1003D000E4D1026822F480520260DFE7F1EE100AF5
:1003E0004FF6FF71C0F2C03120EA010040F04070CA
:1003F000E1EE100A70470000080400080000002029
:0804000060060000F001000895
:0400000508000239B4
:00000001FF
