:020000040800F2
:1000000068060020350200083D0200083F02000893
:1000100041020008430200084502000800000000F9
:10002000000000000000000000000000470200087F
:1000300049020008000000004B0200088903000884
:100040004F0200084F0200084F0200084F0200084C
:100050004F0200084F0200084F0200084F0200083C
:100060004F0200084F0200084F0200084F0200082C
:100070004F0200084F0200084F0200084F0200081C
:100080004F0200084F0200084F0200084F0200080C
:100090004F0200084F0200084F0200084F020008FC
:1000A0004F0200084F0200084F0200084F020008EC
:1000B0004F0200084F0200084F0200084F020008DC
:1000C0004F0200084F0200084F0200084F020008CC
:1000D0004F0200084F0200084F0200084F020008BC
:1000E0004F0200084F0200084F0200084F020008AC
:1000F0004F0200084F0200084F0200084F0200089C
:100100004F0200084F0200084F0200084F0200088B
:100110004F0200084F0200084F0200084F0200087B
:100120004F0200084F0200084F0200084F0200086B
:100130004F0200084F0200084F0200084F0200085B
:100140004F0200084F0200084F0200084F0200084B
:100150004F0200084F0200084F0200084F0200083B
:100160004F0200084F0200084F0200084F0200082B
:100170004F0200084F0200084F0200080000000074
:100180004F0200084F02000800F002F800F042F8A9
:1001900014A696E8000CB244B344DA4501D100F04D
:1001A00039F8BAE80F000FA696E83000A5EB040571
:1001B00004EB0607AAEB0704A7F101074FEA1515A0
:1001C0004FEA3414A4F10104AC4201D300F022F848
:1001D00013F0010F18BFFB1A43F0010300F001F800
:1001E000DBE71847D4020000E4020000704700007B
:1001F0000023002400250026103A28BF78C1FBD830
:10020000520728BF30C148BF0B6070471FB51FBDE4
:1002100010B510BD00F031F81146FFF7F7FF00F000
:1002200007F900F04FF803B4FFF7F2FF03BC00F04A
:1002300057F800000948804709480047FEE7FEE7F5
:10024000FEE7FEE7FEE7FEE7FEE7FEE7FEE7FEE786
:1002500004480549054A064B70470000C9030008D9
:10026000890100086800002068060020680200205C
:1002700068020020704770477047754600F02CF800
:10028000AE4605006946534620F00700854618B083
:1002900020B5FFF7DDFFBDE820404FF000064FF02E
:1002A00000074FF000084FF0000BAC46ACE8C00967
:1002B000ACE8C009ACE8C009ACE8C00921F007010E
:1002C0008D46704710B50446AFF300802046BDE868
:1002D0001040FFF7A8BF0000004870470000002052
:1002E00001491820ABBEFEE726000200704700005F
:1002F00081B000900098012808D1FFE740F6144132
:10030000C4F202014FF4805008603BE000980228DC
:100310000CD1FFE740F61441C4F20201086820F452
:10032000805008604FF4005008602AE000980328CD
:100330000CD1FFE740F61441C4F20201086820F432
:10034000005008604FF48040086019E000980428CD
:100350000CD1FFE740F61441C4F20201086820F412
:10036000804008604FF40040086008E040F6144107
:10037000C4F20201086820F470400860FFE7FFE75C
:10038000FFE7FFE701B0704780B500F01FF80128D4
:1003900018D1FFE740F26400C2F2000000680428B0
:1003A00007D3FFE740F26401C2F2000100200860B9
:1003B00007E040F26401C2F2000108680130086001
:1003C000FFE7FFE780BD00007047000080B582B006
:1003D00040F26100C2F2000001900078009000F04D
:1003E0001FF8009A0146019841EA42010170007825
:1003F0000F2807D1FFE740F26001C2F2000101209F
:10040000087006E040F26001C2F2000100200870AE
:10041000FFE740F26000C2F20000007802B080BD49
:100420001020C4F20200006800F0010070470000D4
:1004300080B582B0002001901920009043F644005E
:10044000C4F20200006843F63001C4F20201092040
:10045000086040F60041C4F20201086840F0AA407A
:100460000860086820F02A400860009800F00AF848
:10047000FFE740F26400C2F200000068FFF738FFB7
:10048000F7E7000081B0009000984FF47A5148439C
:100490004EF21401CEF2000108604EF21801CEF2C5
:1004A0000001002008604EF21001CEF2000107208A
:1004B000086001B070470000C80400080000002078
:0804C00068060000F0010008CD
:0400000508000235B8
:00000001FF
